:0400000053EF14F0B6
:08000800046ED8CF05F0E0CF33
:1000100006F00001E9CF0CF0EACF07F0E1CF08F0DD
:10002000E2CF09F0D9CF0AF0DACF0BF0F3CF12F01C
:10003000F4CF13F0FACF14F000C00EF001C00FF0AF
:1000400002C010F003C011F09DA02AEF00F09EB096
:10005000D7EF04F00EC000F00FC001F010C002F0A6
:1000600011C003F00CC0E9FF07C0EAFF078E08C00B
:10007000E1FF09C0E2FF0AC0D9FF0BC0DAFF12C0DE
:10008000F3FF13C0F4FF14C0FAFF045006C0E0FFF2
:1000900005C0D8FF1000F2CF0DF0F29EF76AB00F46
:1000A000F66E000EF7220900F5500DBEF28E12001A
:1000B000280C01060C0020204D4F444F2050524F79
:1000C0004752414D4143494F4E20000020202020FF
:1000D0002020202020202020202020202020202020
:1000E0002000202020002020200020202000202090
:1000F00020005A313A005A323A005A333A005A3400
:100100003A00202020202020200020202020202015
:10011000200020202020202020002020202020201F
:1001200020002020200020202000545F414D423A32
:100130000000545F4D4F543A0000495F4D4F543A10
:10014000000052504D203A002020202000002020A6
:10015000202000002020202000002020202000005F
:100160004F665A313A004F665A323A004F665A3358
:100170003A004F665A343A004D61785A313A0000DD
:100180004D61785A323A00004D61785A333A000096
:100190004D61785A343A00002020202000002020B1
:1001A000202000002020202000002020202000000F
:1001B00020202020000020202020000020202020BF
:1001C00000002020202000004F664D6F743A000090
:1001D0004F66416D623A00004D61784D3A004D61C5
:1001E00078413A002020202000002020202000001C
:1001F0002020202000002020202000000C000C00E7
:100200004461746F7320477561726461646F730039
:100210000C00A16B100EA26FA46BA36BA86BA76B55
:10022000A66BA56BA25348E0100EA16FA46BA36B45
:10023000745302E192968996742D02D0929A899A0B
:100240007451020802E196928D927451030802E102
:1002500096948D94A15312E0C70E006E002EFED727
:1002600000D0D890A337A437928280A201D0A38176
:1002700096908D8096908D90A107ECD7745302E1F3
:1002800092968986742D02D0929A898A74510208B6
:1002900002E196928D827451030802E196948D8456
:1002A000026A036AA351A527A451A6230250A723DB
:1002B0000350A823A207B6D7A831036EA731026E58
:1002C000A631016EA531006E0332023201320032D6
:1002D0000332023201320032033202320132003282
:1002E0000F0E031601C0A4F000C0A3F0A351040B2D
:1002F000A96FAA6BA95318E1AA5316E19FC0E9FFA1
:10030000A0C0EAFFA431036EA331026E03320232B1
:10031000033202321F0E031602C0EFFF03C0ECFFD0
:10032000000E016E0CD00BD09FC0E9FFA0C0EAFF09
:10033000100EEC6EED52010EEF6E040E016E26EF04
:1003400004F08E0E006EA7C001F0A6C002F0036A92
:10035000015209E102C001F0026A080E005E01527A
:1003600002E1006A08D0D89001BE04D002360136FE
:100370000006F9D7019E1200A651D8B471D0006EC4
:10038000AA51D8B46DD0002604E3810E002668E29D
:1003900004D07F0E005E64E363E0A7C0AEF0AB5113
:1003A000AE1BA78FAB8FA951AD03F4CFB0F0A8510E
:1003B000AC03F4CF03F0F3CFAFF0AD03F350B027AD
:1003C000F450AF23000E0322A951AC03F350B02721
:1003D000F450AF23000E026A03220222A751AD039C
:1003E000F350AF27F4500322000E0222A751AC03B2
:1003F000F3500326F4500222000E016A0122A95193
:10040000AB03F350AF27F4500322000E0222012267
:10041000A851AB03F3500326F4500222000E012230
:10042000A751AB03F3500226F4500122002A01BE6B
:1004300005D0AF370336023601360006000EAFAFE7
:100440000AD0032A02220122015005E1025003E1F1
:10045000035001E1002AAEBF018EAEAF019E04D071
:10046000006A016A026A036A1200800ED8B2AB1BEE
:10047000B06BB16BA7C0AFF0AB51AF1BA651D8B4F6
:10048000DCD0AE6F006EAA51D8B4E0D0AE5FD8B465
:1004900081D03DE3ABC0B4F0B48FACC0B3F0ADC01D
:1004A000B2F0B16BD890B433B333B233B133AE2FB3
:1004B000F8D7AFAF03D0B081DDD0B091AE91B089A5
:1004C000EA6AA90EE96EE9D0B099AFBF0AD0AEA131
:1004D00013D0B433B333B233B133002AD8B4C5D058
:1004E0000BD0B4BF0CD0D890B137B237B337B437D4
:1004F0000006D8B4BAD0F5D7B08D6BD0B09DA7C0E8
:10050000AFF0A7AF02D0B48FA9D0B49FA7D0AAC034
:10051000AEF0AAC000F0A651AE5FA7C0B4F0B48F91
:10052000A8C0B3F0A9C0B2F0B16BD890B433B33364
:10053000B233B133AE2FF8D7AFAF03D0B0839AD078
:10054000B093AE91B08BEA6AAD0EE96EA6D0B09BC7
:10055000AFBF0AD0AEA113D0B433B333B233B1338B
:10056000002AD8B482D00BD0B4BF0CD0D890B13709
:10057000B237B337B4370006D8B477D0F5D7B08FD9
:1005800028D0B09FABC0AFF0ABAF02D0B48F66D075
:10059000B49F64D0ABC0B4F0B48FACC0B3F0ADC006
:1005A000B2F0AFAF04D0B49FB08564D0B095B16B5A
:1005B000AE91EA6AA90EE96E70D0AFBF1CD0A7C099
:1005C000AFF0AEA106D0B433B333B233B133002AA7
:1005D0004CE0B1AF0BD0B22B09E1B32B07E1B42B48
:1005E00005E1B433B333B233002A3FE0B0BD86D760
:1005F000B0BFC7D71CD0800EB41BB4AF04D03AD064
:10060000ABC0AFF00AD0A7C0AFF0B45306E1B3530C
:1006100004E1B25302E1006A21D0B4BF08D0D890FF
:10062000B137B237B337B437002EF7D71ED0AFAFDC
:1006300002D0B48F13D0B49F11D0AAC000F0ABC0C9
:10064000B4F0ACC0B3F0ADC0B2F008D0A6C000F0BA
:10065000A7C0B4F0A8C0B3F0A9C0B2F0B4C001F014
:10066000B3C002F0B2C003F034D0006A016A026A7B
:10067000036A2FD0B16BB21FB31FB41FB11FB12BD0
:1006800005E1B22B03E1B32B01E1B42BB0B115D7D7
:10069000B0B356D7B0B58AD7B3D7EF50B22705E37A
:1006A000B32B03E1B42BD8B4AE81ED52EF50B32796
:1006B00003E3B42BD8B4AE81ED52EF50EFBE01D0BE
:1006C000800AB427D8B0AE81B0B9FED6B0BB3FD750
:1006D00074D71200A56BA46BA36BA26BA0C0A7F08C
:1006E0009FC0A6F02EDE03C0A9F002C0A8F001C092
:1006F000A7F000C0A6F0AD6BAC6BAB6B7D0EAA6F24
:100700003BDE03C0A5F002C0A4F001C0A3F000C00E
:10071000A2F0A151010A03E0030A30E049D0A5C0CC
:10072000A9F0A4C0A8F0A3C0A7F0A2C0A6F0660ECE
:10073000AD6FAC6FAB6F7F0EAA6F1EDE03C0A5F06E
:1007400002C0A4F001C0A3F000C0A2F0D892A5C0DE
:10075000A9F0A4C0A8F0A3C0A7F0A2C0A6F0AD6BFA
:10076000AC6BAB6B840EAA6F80DE03C0A5F002C039
:10077000A4F001C0A3F000C0A2F01AD0D892A5C086
:10078000A9F0A4C0A8F0A3C0A7F0A2C0A6F0AD6BCA
:10079000800EAC6F080EAB6F870EAA6F66DE03C0CB
:1007A000A5F002C0A4F001C0A3F000C0A2F000D0E8
:1007B000A2C000F0A3C001F0A4C002F0A5C003F0E5
:1007C00030EF04F0A0C0A7F0A451A71BA7AF05D03D
:1007D000D894D890A0BFD8802FD0A0C0A7F0A3C035
:1007E000A8F09F51A85F06E0A7AF26D0D850010A15
:1007F000D86E22D0A4C0A8F0A051A85F06E0A7AF91
:100800001BD0D850010AD86E17D0A5C0A8F0A151AE
:10081000A85F06E0A7AF10D0D850010AD86E0CD060
:10082000A6C0A8F0A251A85F06E0A7AF05D0D85097
:10083000010AD86E01D0D89012009D90F29CF29ED1
:10084000F2BEFDD7A06B770E9F6FE3D401C076F0A8
:10085000756B78C0A0F077C09FF075C0A1F03AD753
:1008600003C07CF002C07BF001C07AF000C079F0D8
:10087000745308E17CC032F07BC031F07AC030F0B4
:1008800079C02FF0742D08D07CC036F07BC035F0D5
:100890007AC034F079C033F07451020808E17CC0AA
:1008A0003AF07BC039F07AC038F079C037F0745133
:1008B000030808E17CC03EF07BC03DF07AC03CF00C
:1008C00079C03BF09D80C00EF2124AC0A7F049C02B
:1008D000A6F037DD3AC0A2F039C0A1F038C0A0F0D0
:1008E00037C09FF003C0A6F002C0A5F001C0A4F07D
:1008F00000C0A3F067DF03E395908C8002D0959051
:100900008C904CC0A7F04BC0A6F01BDD3EC0A2F0FF
:100910003DC0A1F03CC0A0F03BC09FF003C0A6F0DA
:1009200002C0A5F001C0A4F000C0A3F04BDF03E3B8
:1009300094928B8202D094928B9248C0A7F047C0C9
:10094000A6F0FFDC36C0A2F035C0A1F034C0A0F0A4
:1009500033C09FF003C0A6F002C0A5F001C0A4F010
:1009600000C0A3F02FDF03E3959C8C8C02D0959CF4
:100970008C9C46C0A7F045C0A6F0E3DC32C0A2F0D4
:1009800031C0A1F030C0A0F02FC09FF003C0A6F08E
:1009900002C0A5F001C0A4F000C0A3F013DF03E380
:1009A000959A8C8A02D0959A8C9AE7EF04F09D90E4
:1009B0007D2BD8B47E2B7D510A080BE17E5309E1D3
:1009C0007E6B7D6B746B7451030803E336D7742B15
:1009D000FAD79E900B0ECF6EDC0ECE6E9D809E9051
:1009E0002AEF00F048322D54656300005369737498
:1009F000656D6120646520657874727573696F6ECA
:100A0000000056657273696F6E20312E30000C0045
:100A10000C004D4F444F2050524F4752414D4143DF
:100A2000494F4E000C00040E946E745302E19296EE
:100A30008986742D02D0929A898A7451020802E143
:100A400096928D827451030802E196948D8496905B
:100A50008D8051EF05F0C69A949E93809392010E7B
:100A6000C66E000EC76E070EB46E9250926E270EC1
:100A7000006E002EFED700D0B450A19CC290C15091
:100A8000C00B0F09C16E9698F00EBD16BA16C70EB0
:100A9000D56ED76AD66A000ECA6EFF0ECB6ECC6AD0
:100AA000C2D796EF14F0EA6A900EE96EEF500EE0AE
:100AB0000F0E016E006A002EFED7012EFBD78F0E9F
:100AC000006E002EFED70000EF2EF2D7120097B175
:100AD00002D08A9601D08A86939697B302D08A98DC
:100AE00001D08A88939897B502D08A9A01D08A8AD1
:100AF000939A97B702D08A9C01D08A8C939C00006D
:100B000093948A84070E006E002EFED700D0939433
:100B10008A941200986B93948A84030E006E002EC0
:100B2000FED700D09386989181B698819388989348
:100B300081B89883938A989581BA9885938C989771
:100B400081BC988793948A94030E006E002EFED782
:100B500000D098C001F0120093928A820000DADF80
:100B600001C097F0D7DF01C096F09739006EF00E04
:100B7000001600509611016EC1EF05F093908A9017
:100B8000EBD701C096F001BEFBD7945303E09390DE
:100B90008A8002D093908A90000093928A920000FB
:100BA00093948A949539966F0F0E961796C097F086
:100BB0008EDF95510F0B966F976F89DF1200010E34
:100BC0006D6F93908A9093928A9293948A94230E55
:100BD000906F69DF816B8151020808E3030E976F04
:100BE00076DF050E906F5FDF812BF5D7020E976FD2
:100BF0006EDF816B815103080FE3036A8151F2CFED
:100C000082F0F29E4BEC00F082BFF28E826F946B0A
:100C1000956FB4DF812BEED7A9EF14F09151010A43
:100C200007E0030A07E0010A08E0070A09E00BD021
:100C3000926B0AD0400E926F07D0140E926F04D0C0
:100C4000540E926F01D0926B010E905D92279251DB
:100C50008009936F946B956F91DF12008F510C0A8E
:100C600005E0060A0DE0020A12E016D0946B010EB0
:100C7000956F84DF010E6D6F020E906F14DF11D03F
:100C80006D2B010E906F6DC091F0C8DF0AD0946B90
:100C9000100E956F73DF05D0010E946F8FC095F025
:100CA0006DDF12000900F5520CE0F6CF83F0F7CFAC
:100CB00084F0F5CF8FF0D2DF83C0F6FF84C0F7FF5A
:100CC000F1D71200939E8A8EC80E906FECDE939E31
:100CD0008A9E640E906FE7DE939E8A8E320E906F2E
:100CE000E2DE939E8A9E320E906FDDDE939E8A8EA8
:100CF000320E906FD8DE939E8A9E320E906FD3DEB6
:100D0000CEEF14F0836B846B866B856BF2CF87F02C
:100D1000F29E81C0A9FFA69CA69EA680A85087BF70
:100D2000F28E836F010E8125876F000E8221886FFE
:100D3000F2CF89F0F29E87C0A9FFA69CA69EA6804E
:100D4000A85089BFF28E846F84C086F0856B835172
:100D5000851385C001F086C002F01200EACF8AF048
:100D6000E9CF89F08339F009856F8527E20F866F17
:100D7000320F886F83510F0B862786278827E90F4C
:100D8000876F8727872782390F0B87278827873721
:100D90008837881F883782510F0B88278537070EC1
:100DA000846F0A0E87078827FDE386078727FDE300
:100DB00085078627FDE384078527FDE3EA6A840E1D
:100DC000E96E070E8915899DE926000EEA22E95091
:100DD000880803E1EA5201E1898DEF50006E08E1D5
:100DE00089BD06D089B913D089B702D0200E03D0AF
:100DF00089878999300E0026EACF83F0E9CF82F007
:100E000000C08FF02BDF83C0EAFF82C0E9FFEE5005
:100E100089ADDDD712008F51B6088F6F036A90C07D
:100E200093F0908FD8909033913392330332023203
:100E3000013200328F2FF6D793AF0BD0001E011E68
:100E4000021E031E002AD8B4012AD8B4022AD8B43C
:100E5000032AC7EF07F0D8B203D0EA6A970EE96E0B
:100E6000006A016A026A036A976B986B996B9A6BC6
:100E700096519511941193112CE0200E9B6FD890F0
:100E80008F379037913792379737983799379A3706
:100E900096519A5D08E19551995D05E19451985DEF
:100EA00002E19351975D0FE39351975F9451D8A05E
:100EB000943D985F9551D8A0953D995F9651D8A0E3
:100EC000963D9A5FD88000360136023603369B2F56
:100ED000D6D797C0EFFF98C0ECFF99C0ECFF9AC03F
:100EE000ECFF1200E950876F8651896F20E0166A87
:100EF000F2BE168EF29E85C0A9F084C0A8F083C011
:100F0000A7F082C0A6F0AD6BAC6B200EAB6F820E6B
:100F1000AA6FBCEC01F016BEF28E03C085F002C0D1
:100F200084F001C083F000C082F0892FE0D77E0EEC
:100F3000006E016A83BF018E026A036AD892166A44
:100F4000F2BE168EF29E85C0A9F084C0A8F083C0C0
:100F5000A7F082C0A6F003C0ADF002C0ACF001C0A3
:100F6000ABF0AA6F35EC02F016BEF28E03C085F02E
:100F700002C084F001C083F000C082F085C092F00E
:100F800084C091F083C090F082C08FF044D703C03A
:100F900085F002C084F001C083F000C082F085AF0C
:100FA0000DD08707878B821F831F841F851F822B8D
:100FB000D8B4832BD8B4842BD8B4852B3B0E8E6F3A
:100FC0009A0E8D6FCA0E8C6F8B6B0A0E896F8651CD
:100FD000D8B4872BD882EA6A820EE96E85C092F077
:100FE00084C091F083C090F082C08FF08EC096F0E4
:100FF0008DC095F08CC094F08BC093F02CDF015025
:1010000000520FE18629895D0CE087510CE00F0B3F
:10101000895D01E037E287BF35D087BD04D0200E5F
:101020002DD0200E871787AB0CD0879B8651D8A474
:1010300087070050876F2D0E8F6F10DE8751006E6F
:10104000876B8651895D0AE10050876F2E0E8F6F86
:1010500005DE8751006E200E8717000E300E87AB1D
:101060000DD0879B8651D8A487070050876F2D0E1F
:101070008F6FF4DD8751006E876B300E002600C045
:101080008FF0ECDDD8928EC092F08DC091F08CC0C4
:1010900090F08BC08FF0966B956B946B0A0E936FEC
:1010A000DADE03C08EF002C08DF001C08CF000C00B
:1010B0008BF0892F8FD71200120E906F040E916F54
:1010C000ADDDE20EF66E000EF76EECDD120E906FE7
:1010D000040E916FA3DD100EE96E4CC083F04BC07F
:1010E00082F03CDE120E906F030E916F97DDE60EDC
:1010F000F66E000EF76ED6DD120E906F030E916F36
:101100008DDD100EE96E4AC083F049C082F026DE04
:10111000120E906F020E916F81DDEA0EF66E000ED8
:10112000F76EC0DD120E906F020E916F77DD100E1C
:10113000E96E48C083F047C082F010DE120E906F57
:10114000010E916F6BDDEE0EF66E000EF76EAADDEE
:10115000120E906F010E916F61DD100EE96E46C0A8
:1011600083F045C082F0FADD010E906F916F56DD7D
:10117000F20EF66E000EF76E95DD010E906F020E08
:10118000916F4CDDF60EF66E000EF76E8BDD010EE4
:10119000906F030E916F42DDFA0EF66E000EF76E41
:1011A00081DD010E906F040E916F38DDFE0EF66E3C
:1011B000000EF76E77DD100E906F010E916F2EDD31
:1011C000530E8F6F4BDD500E8F6F48DD100E906FFA
:1011D000020E916F23DD530E8F6F40DD500E8F6F27
:1011E0003DDD100E906F030E916F18DD530E8F6F63
:1011F00035DD500E8F6F32DD100E906F040E916F43
:101200000DDD530E8F6F2ADD500E8F6F27DD040E1C
:10121000906F010E916F02DD020EF66E010EF76EF9
:1012200041DD040E906F010E916FF8DC030EE96E44
:1012300032C085F031C084F030C083F02FC082F01E
:10124000866B50DEDF0E8F6F09DD430E8F6F06DD7C
:10125000040E906F020E916FE1DC0A0EF66E010E25
:10126000F76E20DD040E906F020E916FD7DC166AC8
:10127000F2BE168EF29E36C0A2F035C0A1F034C088
:10128000A0F033C09FF0A66BC00EA56F790EA46FBF
:10129000880EA36FE2EC03F016BEF28E0CE3030E91
:1012A000E96E36C085F035C084F034C083F033C0B9
:1012B00082F0866B17DEDF0E8F6FD0DC430E8F6FF0
:1012C000CDDC040E906F030E916FA8DC120EF66E4B
:1012D000010EF76EE7DC040E906F030E916F9EDC3B
:1012E000166AF2BE168EF29E3AC0A2F039C0A1F084
:1012F00038C0A0F037C09FF0A66BC00EA56F790E66
:10130000A46F880EA36FE2EC03F016BEF28E0CE31E
:10131000030EE96E3AC085F039C084F038C083F01E
:1013200037C082F0866BDEDDDF0E8F6F97DC430EF9
:101330008F6F94DC040E906F916F70DC1A0EF66E56
:10134000010EF76EAFDC040E906F916F67DC166ACA
:10135000F2BE168EF29E3EC0A2F03DC0A1F03CC08F
:10136000A0F03BC09FF0A66BC00EA56F790EA46FD6
:10137000880EA36FE2EC03F016BEF28E0CE3030EB0
:10138000E96E3EC085F03DC084F03CC083F03BC0B8
:1013900082F0866BA7DDDF0E8F6F60DC430E8F6FF0
:1013A0005DDC1200E950866F3B0E8D6F9A0E8C6FDC
:1013B000CA0E8B6F8A6B0A0E886FD882EA6A820E19
:1013C000E96E85C092F084C091F083C090F082C035
:1013D0008FF08DC096F08CC095F08BC094F08AC0D1
:1013E00093F039DD015000520FE18851010A0CE001
:1013F00086510BE00F0B885D01E00CE286BF0AD03E
:1014000086BD03D0200E02D0866B300E002600C0B1
:101410008FF024DCD8928DC092F08CC091F08BC0FC
:1014200090F08AC08FF0966B956B946B0A0E936F59
:1014300012DD03C08DF002C08CF001C08BF000C043
:101440008AF0882FBAD71200120E906F020E916F99
:101450000EEC06F0220EF66E010EF76E23DC120E75
:10146000906F020E916F0EEC06F0100EE96E50C0F8
:1014700083F04FC082F072DC120E906F030E916FFA
:101480000EEC06F0260EF66E010EF76E0BDC120E59
:10149000906F030E916F0EEC06F0100EE96E4EC0C9
:1014A00083F04DC082F05ADC010E906F916F0EEC0C
:1014B00006F02A0EF66E010EF76E52EC06F0010EE3
:1014C000906F020E916F0EEC06F0320EF66E010E6A
:1014D000F76E52EC06F0010E906F030E916F0EEC5A
:1014E00006F03A0EF66E010EF76E52EC06F0010EA3
:1014F000906F040E916F0EEC06F0420EF66E010E28
:10150000F76E52EC06F0100E906F030E916F0EEC1A
:1015100006F0530E8F6F2EEC06F0500E8F6F2EECF0
:1015200006F0070E906F010E916F0EEC06F0480E5C
:10153000F66E010EF76E52EC06F0070E906F010E7C
:10154000916F0EEC06F0100EE96E42C083F041C0C0
:1015500082F004DC090E906F010E916F0EEC06F024
:10156000DF0E8F6F2EEC06F00A0E906F010E916F5A
:101570000EEC06F0410E8F6F2EEC06F0440E8F6FCE
:101580002EEC06F00C0E906F010E916F0EEC06F033
:101590004E0EF66E010EF76E52EC06F00C0E906FCA
:1015A000010E916F0EEC06F0410EE96E2AC085F037
:1015B00029C084F028C083F027C082F0F3DE070E34
:1015C000906F020E916F0EEC06F0540EF66E010E47
:1015D000F76E52EC06F0070E906F020E916F0EEC54
:1015E00006F0100EE96E40C083F03FC082F0AEEC12
:1015F00006F0090E906F010E916F0EEC06F0DF0EF3
:101600008F6F2EEC06F00A0E906F020E916F0EECAB
:1016100006F0410E8F6F2EEC06F0440E8F6F2EEC0D
:1016200006F00C0E906F020E916F0EEC06F05A0E43
:10163000F66E010EF76E52EC06F00C0E906F020E75
:10164000916F0EEC06F0410EE96E2EC085F02DC0B4
:1016500084F02CC083F02BC082F0A4DE100E906FBB
:10166000020E916F0EEC06F0530E8F6F2EEC06F00B
:10167000500E8F6F2EEC06F01200010E906F916FDE
:101680000EEC06F0600EF66E010EF76E52EC06F0F0
:10169000010E906F020E916F0EEC06F0660EF66E64
:1016A000010EF76E52EC06F0010E906F030E916F73
:1016B0000EEC06F06C0EF66E010EF76E52EC06F0B4
:1016C000010E906F040E916F0EEC06F0720EF66E26
:1016D000010EF76E52EC06F00B0E906F010E916F3B
:1016E0000EEC06F0780EF66E010EF76E52EC06F078
:1016F0000B0E906F020E916F0EEC06F0800EF66EE0
:10170000010EF76E52EC06F00B0E906F030E916F08
:101710000EEC06F0880EF66E010EF76E52EC06F037
:101720000B0E906F040E916F0EEC06F0900EF66E9D
:10173000010EF76E52EC06F0060E906F010E916FDF
:101740000EEC06F0980EF66E010EF76E52EC06F0F7
:10175000060E906F010E916F0EEC06F052500308CA
:101760000CE303E15150E70808E3100EE96E52C0A4
:1017700083F051C082F0AEEC06F0060E906F020EC0
:10178000916F0EEC06F09E0EF66E010EF76E52ECA7
:1017900006F0060E906F020E916F0EEC06F054509C
:1017A00003080CE303E15350E70808E3100EE96E69
:1017B00054C083F053C082F0AEEC06F0060E906F7A
:1017C000030E916F0EEC06F0A40EF66E010EF76E8E
:1017D00052EC06F0060E906F030E916F0EEC06F0C1
:1017E000565003080CE303E15550E70808E3100ED8
:1017F000E96E56C083F055C082F0AEEC06F0060EDE
:10180000906F040E916F0EEC06F0AA0EF66E010EAC
:10181000F76E52EC06F0060E906F040E916F0EEC10
:1018200006F0585003080CE303E15750E70808E3BB
:10183000100EE96E58C083F057C082F0AEEC06F08F
:10184000110E906F010E916F0EEC06F0B00EF66E59
:10185000010EF76E52EC06F0110E906F010E916FB3
:101860000EEC06F05E5004080CE303E15D50000846
:1018700008E3100EE96E5EC083F05DC082F0AEEC4E
:1018800006F0110E906F020E916F0EEC06F0B60E80
:10189000F66E010EF76E52EC06F0110E906F020E0E
:1018A000916F0EEC06F0605104080CE303E15F5009
:1018B000000808E3100EE96E60C083F05FC082F09C
:1018C000AEEC06F0110E906F030E916F0EEC06F069
:1018D000BC0EF66E010EF76E52EC06F0110E906F14
:1018E000030E916F0EEC06F0625104080CE303E165
:1018F0006151000808E3100EE96E62C083F061C018
:1019000082F0AEEC06F0110E906F040E916F0EECAB
:1019100006F0C20EF66E010EF76E52EC06F0110ED6
:10192000906F040E916F0EEC06F0645104080CE306
:1019300003E16351000808E3100EE96E64C083F010
:1019400063C082F0AEEC06F01200010E906F916F52
:101950000EEC06F0C80EF66E010EF76E52EC06F0B5
:10196000010E906F020E916F0EEC06F0D00EF66E27
:10197000010EF76E52EC06F00B0E906F010E916F98
:101980000EEC06F0D80EF66E010EF76E52EC06F075
:101990000B0E906F020E916F0EEC06F0DE0EF66EDF
:1019A000010EF76E52EC06F0070E906F010E916F6C
:1019B0000EEC06F0E40EF66E010EF76E52EC06F039
:1019C000070E906F010E916F0EEC06F05C520BE16A
:1019D0005B50640808E3100EE96E5CC083F05BC0E6
:1019E00082F0AEEC06F0070E906F020E916F0EECD7
:1019F00006F0EA0EF66E010EF76E52EC06F0070ED8
:101A0000906F020E916F0EEC06F05A520BE1595096
:101A1000640808E3100EE96E5AC083F059C082F0E2
:101A2000AEEC06F0110E906F010E916F0EEC06F009
:101A3000F00EF66E010EF76E52EC06F0110E906F7E
:101A4000010E916F0EEC06F06851030808E3100ECA
:101A5000E96E68C083F067C082F0AEEC06F0110E4C
:101A6000906F020E916F0EEC06F0F60EF66E010E00
:101A7000F76E52EC06F0110E906F020E916F0EECA5
:101A800006F06651030808E3100EE96E66C083F0A5
:101A900065C082F0AEEC06F01200938293869388C4
:101AA000938A938C140E906F53EC05F059EF0DF060
:101AB000F4D781A81BD0432AD8B4442A4350030B3F
:101AC000006E036A0050031008E1445203E14350E2
:101AD0001E0803E2010E016E77D04350040805E1B1
:101AE000445203E1010E016E6FD068D081AC1BD06F
:101AF000432AD8B4442A4350030B006E036A0050B3
:101B0000031008E1445203E143501E0803E2020EB1
:101B1000016E5AD04350020805E1445203E1020E1F
:101B2000016E52D04BD081A21BD0432AD8B4442A94
:101B30004350030B006E036A0050031008E1445247
:101B400003E143501E0803E2030E016E3DD04350F3
:101B5000020805E1445203E1030E016E35D02ED098
:101B600081A614D0432AD8B4442A445203E14350F6
:101B70000A0803E2040E016E27D04350020805E173
:101B8000445203E1040E016E1FD018D081AA14D074
:101B9000432AD8B4442A445203E143500A0803E2DA
:101BA000050E016E11D04350020805E1445203E1D5
:101BB000050E016E09D002D0446A436A140E906F7C
:101BC00053EC05F0000E016E93EF15F0FC0EF66E6F
:101BD000010EF76E52EC06F08151030807E16951DE
:101BE000020802E2696B01D0692B09D08151020819
:101BF00006E1695303E1030E696F01D06907010E25
:101C00006B6F695303E15CEC08F00FD0692D04D0D1
:101C1000020E6B6F19DC09D06951020802E12DDD5B
:101C200004D06951030801E190DE120069510208F5
:101C300004E069510308D8A458D16B2D28D00A0EAE
:101C4000906F010E916F0EEC06F03C0E8F6F2EEC34
:101C500006F00A0E906F020E916F0EEC06F0200E49
:101C60008F6F2EEC06F00A0E906F030E916F0EEC44
:101C700006F0200E8F6F2EEC06F00A0E906F040E09
:101C8000916F0EEC06F0200E8F6F2EEC06F06B516C
:101C9000020828E10A0E906F010E916F0EEC06F01B
:101CA000200E8F6F2EEC06F00A0E906F020E916FD1
:101CB0000EEC06F03C0E8F6F2EEC06F00A0E906FC5
:101CC000030E916F0EEC06F0200E8F6F2EEC06F0D7
:101CD0000A0E906F040E916F0EEC06F0200E8F6FBF
:101CE0002EEC06F06B51030828E10A0E906F010EEE
:101CF000916F0EEC06F0200E8F6F2EEC06F00A0EA0
:101D0000906F020E916F0EEC06F0200E8F6F2EEC8E
:101D100006F00A0E906F030E916F0EEC06F03C0E6B
:101D20008F6F2EEC06F00A0E906F040E916F0EEC82
:101D300006F0200E8F6F2EEC06F06B51040828E1A0
:101D40000A0E906F010E916F0EEC06F0200E8F6F51
:101D50002EEC06F00A0E906F020E916F0EEC06F05C
:101D6000200E8F6F2EEC06F00A0E906F030E916F0F
:101D70000EEC06F0200E8F6F2EEC06F00A0E906F20
:101D8000040E916F0EEC06F03C0E8F6F2EEC06F0F9
:101D90006B51050828E10A0E906F010E916F0EEC51
:101DA00006F03E0E8F6F2EEC06F00A0E906F020EBC
:101DB000916F0EEC06F0200E8F6F2EEC06F00A0EDF
:101DC000906F030E916F0EEC06F0200E8F6F2EECCD
:101DD00006F00A0E906F040E916F0EEC06F0200EC6
:101DE0008F6F2EEC06F06B51060828E10A0E906FFB
:101DF000010E916F0EEC06F0200E8F6F2EEC06F0A8
:101E00000A0E906F020E916F0EEC06F03E0E8F6F71
:101E10002EEC06F00A0E906F030E916F0EEC06F09A
:101E2000200E8F6F2EEC06F00A0E906F040E916F4D
:101E30000EEC06F0200E8F6F2EEC06F06B510708AB
:101E400028E10A0E906F010E916F0EEC06F0200E45
:101E50008F6F2EEC06F00A0E906F020E916F0EEC53
:101E600006F0200E8F6F2EEC06F00A0E906F030E18
:101E7000916F0EEC06F03E0E8F6F2EEC06F00A0E00
:101E8000906F040E916F0EEC06F0200E8F6F2EEC0B
:101E900006F06B51080828E10A0E906F010E916F51
:101EA0000EEC06F0200E8F6F2EEC06F00A0E906FEF
:101EB000020E916F0EEC06F0200E8F6F2EEC06F0E6
:101EC0000A0E906F030E916F0EEC06F0200E8F6FCE
:101ED0002EEC06F00A0E906F040E916F0EEC06F0D9
:101EE0003E0E8F6F2EEC06F0ABD06B2D28D00F0E70
:101EF000906F010E916F0EEC06F03E0E8F6F2EEC80
:101F000006F00F0E906F020E916F0EEC06F0200E91
:101F10008F6F2EEC06F00F0E906F030E916F0EEC8C
:101F200006F0200E8F6F2EEC06F00F0E906F040E51
:101F3000916F0EEC06F0200E8F6F2EEC06F06B51B9
:101F4000020828E10F0E906F010E916F0EEC06F063
:101F5000200E8F6F2EEC06F00F0E906F020E916F19
:101F60000EEC06F03E0E8F6F2EEC06F00F0E906F0B
:101F7000030E916F0EEC06F0200E8F6F2EEC06F024
:101F80000F0E906F040E916F0EEC06F0200E8F6F07
:101F90002EEC06F06B51030828E10F0E906F010E36
:101FA000916F0EEC06F0200E8F6F2EEC06F00F0EE8
:101FB000906F020E916F0EEC06F0200E8F6F2EECDC
:101FC00006F00F0E906F030E916F0EEC06F03E0EB2
:101FD0008F6F2EEC06F00F0E906F040E916F0EECCB
:101FE00006F0200E8F6F2EEC06F06B51040828E1EE
:101FF0000F0E906F010E916F0EEC06F0200E8F6F9A
:102000002EEC06F00F0E906F020E916F0EEC06F0A4
:10201000200E8F6F2EEC06F00F0E906F030E916F57
:102020000EEC06F0200E8F6F2EEC06F00F0E906F68
:10203000040E916F0EEC06F03E0E8F6F2EEC06F044
:1020400012006B2D28D00F0E906F010E916F0EECC9
:1020500006F03E0E8F6F2EEC06F00F0E906F020E04
:10206000916F0EEC06F0200E8F6F2EEC06F00F0E27
:10207000906F030E916F0EEC06F0200E8F6F2EEC1A
:1020800006F00F0E906F040E916F0EEC06F0200E0E
:102090008F6F2EEC06F06B51020828E10F0E906F47
:1020A000010E916F0EEC06F0200E8F6F2EEC06F0F5
:1020B0000F0E906F020E916F0EEC06F03E0E8F6FBA
:1020C0002EEC06F00F0E906F030E916F0EEC06F0E3
:1020D000200E8F6F2EEC06F00F0E906F040E916F96
:1020E0000EEC06F0200E8F6F2EEC06F06B510308FD
:1020F00028E10F0E906F010E916F0EEC06F0200E8E
:102100008F6F2EEC06F00F0E906F020E916F0EEC9B
:1021100006F0200E8F6F2EEC06F00F0E906F030E60
:10212000916F0EEC06F03E0E8F6F2EEC06F00F0E48
:10213000906F040E916F0EEC06F0200E8F6F2EEC58
:1021400006F06B51040828E10F0E906F010E916F9D
:102150000EEC06F0200E8F6F2EEC06F00F0E906F37
:10216000020E916F0EEC06F0200E8F6F2EEC06F033
:102170000F0E906F030E916F0EEC06F0200E8F6F16
:102180002EEC06F00F0E906F040E916F0EEC06F021
:102190003E0E8F6F2EEC06F05AEF11F0F2CF8BF05F
:1021A000F29E85C0A9FFA69CA69EA680A8508BBFC4
:1021B000F28E876F010E85258B6F000E86218C6F46
:1021C000F2CF8DF0F29E8BC0A9FFA69CA69EA680A2
:1021D000A8508DBFF28E886F88C08AF0896B8751B6
:1021E00089138351895D05E184518A5D02E13CD008
:1021F0003BD0876B886B83C087F084C083F0846B8F
:1022000083C088F0F250006EF29E85C0A9FF87C09F
:10221000A8FFA69CA69EA6840F01550EA76EAA0E27
:10222000A76EA682A6B2FED7A6940050F212010EA7
:10223000000185258B6F000E86218C6FF250006E99
:10224000F29E8BC0A9FF88C0A8FFA69CA69EA6846C
:102250000F01550EA76EAA0EA76EA682A6B2FED7D4
:10226000A6940050F21200011200939E8A8E320E44
:10227000906F53EC05F0939E8A9E320E906F53EC54
:1022800005F0939E8A8E320E906F53EC05F0939E6C
:102290008A9E320E906F53EC05F00AEF12F06951EE
:1022A000020802E1C3DC06D06951030802E1BEDC8A
:1022B00001D0C7D6815306E1825304E151EF14F0F7
:1022C00051EF14F0812DAED08253D8A4ABD06A6BFD
:1022D000FE0EF66E010EF76E52EC06F0050E906FD4
:1022E000020E916F0EEC06F046C084F045C083F0FC
:1022F000866B060E856F52DF48C084F047C083F0BE
:10230000866B040E856F4ADF4AC084F049C083F0B3
:10231000866B020E856F42DF4CC084F04BC083F0A9
:10232000866B856B3BDF52C084F051C083F0866BB7
:10233000140E856F33DF54C084F053C083F0866B76
:10234000160E856F2BDF56C084F055C083F0866B68
:10235000180E856F23DF58C084F057C083F0866B5A
:102360001A0E856F1BDF5CC084F05BC083F0866B48
:10237000200E856F13DF5AC084F059C083F0866B3E
:10238000220E856F0BDF5EC084F05DC083F0866B2C
:102390000C0E856F03DF60C084F05FC083F0866B36
:1023A0000E0E856FFBDE62C084F061C083F0866B29
:1023B000100E856FF3DE64C084F063C083F0866B1B
:1023C000120E856FEBDE68C084F067C083F0866B09
:1023D0001C0E856FE3DE66C084F065C083F0866BFB
:1023E0001E0E856FDBDE4EC084F04DC083F0866B21
:1023F000080E856FD3DE50C084F04FC083F0866B2B
:102400000A0E856FCBDE000EF66E020EF76E52ECF2
:1024100006F02BD7100EF66E020EF76E52EC06F099
:1024200040D23FD2815102082DE182532BE1692D28
:1024300008D06B51020803E1030E6B6F01D06B07EC
:1024400020D06951020807E16B2D03D0080E6B6F95
:1024500001D06B0716D0695103080DE16B2D03D035
:10246000060E6B6F07D06B51050803E1020E6B6F10
:1024700001D06B0706D06B2D03D0040E6B6F01D01B
:102480006B070FD28151030830E182532EE1692D91
:1024900008D06B51030803E1020E6B6F01D06B2B68
:1024A00023D06951020808E16B51080803E1010ECD
:1024B0006B6F01D06B2B18D0695103080EE16B5183
:1024C000020803E1050E6B6F07D06B51060803E1AC
:1024D000010E6B6F01D06B2B07D06B51040803E129
:1024E000010E6B6F01D06B2BDCD181510508D8A494
:1024F000E2D08253D8A4DFD0695343E16B2D0ED0D4
:102500004650000807E2FF0A03E145502B0802E2AB
:10251000466A456A452AD8B4462A32D06B51020829
:102520000EE14850000807E2FF0A03E147502B087C
:1025300002E2486A476A472AD8B4482A21D06B5138
:1025400003080EE14A50000807E2FF0A03E1495080
:102550002B0802E24A6A496A492AD8B44A2A10D0AA
:102560006B5104080DE14C50000807E2FF0A03E13B
:102570004B502B0802E24C6A4B6A4B2AD8B44C2AC7
:1025800099D0692D1CD06B5103080BE14E5203E129
:102590004D50630802E24E6A4D6A4D2AD8B44E2A65
:1025A0000DD06B5102080AE1505203E14F5063080D
:1025B00002E2506A4F6A4F2AD8B4502A7BD0695140
:1025C00002084FE16B2D05D018C052F017C051F032
:1025D00047D06B51020805E11CC054F01BC053F0FA
:1025E0003FD06B51030805E120C056F01FC055F0E5
:1025F00037D06B51040805E124C058F023C057F0D0
:102600002FD06B51050809E15E50030802E25E6AB3
:102610005D6A5D2AD8B45E2A23D06B51060809E1B1
:102620006051030802E2606B5F6A5F2AD8B4602BD6
:1026300017D06B51070809E16251030802E2626B8F
:10264000616B612BD8B4622B0BD06B51080808E189
:102650006451030802E2646B636B632BD8B4642B90
:1026600029D06951030826E16B2D05D02CC05CF000
:102670002BC05BF01FD06B51020805E128C05AF057
:1026800027C059F017D06B51050809E168510308BC
:1026900002E2686B676B672BD8B4682B0BD06B5169
:1026A000060808E16651030802E2666B656B652B5C
:1026B000D8B4662BF6D081510408D8A4F2D0825346
:1026C000D8A4EFD069533FE16B2D0DD0455206E100
:1026D000465204E1010E466E2C0E456E4550D8B4AC
:1026E000460645062FD06B5102080DE1475206E120
:1026F000485204E1010E486E2C0E476E4750D8B484
:10270000480647061FD06B5103080DE1495206E108
:102710004A5204E1010E4A6E2C0E496E4950D8B45B
:102720004A0649060FD06B5104080CE14B5206E1F2
:102730004C5204E1010E4C6E2C0E4B6E4B50D8B433
:102740004C064B06AED0692D1ED06B5103080CE130
:102750004D5205E14E5203E14E6A640E4D6E4D50EE
:10276000D8B44E064D060ED06B5102080BE14F5205
:1027700005E1505203E1506A640E4F6E4F50D8B4D9
:1027800050064F068ED069510208D8A45BD06B2D3D
:1027900005D018C052F017C051F053D06B51020849
:1027A00005E11CC054F01BC053F04BD06B51030823
:1027B00005E120C056F01FC055F043D06B5104080E
:1027C00005E124C058F023C057F03BD06B510508F9
:1027D0000CE15D5205E15E5203E1040E5E6E5D6A3E
:1027E0005D50D8B45E065D062CD06B5106080CE136
:1027F0005F5205E1605303E1040E606F5F6A5F5052
:10280000D8B460075F061DD06B5107080CE1615317
:1028100005E1625303E1040E626F616B6151D8B44C
:10282000620761070ED06B5108080BE1635305E1A5
:10283000645303E1040E646F636B6351D8B464079F
:1028400063072FD0695103082CE16B2D05D02CC0F4
:102850005CF02BC05BF025D06B51020805E128C06D
:102860005AF027C059F01DD06B5105080CE1675391
:1028700005E1685303E1040E686F676B6751D8B4D4
:10288000680767070ED06B5106080BE1655305E139
:10289000665303E1040E666F656B6551D8B4660735
:1028A0006507DAEF15F0F86AD09E078E1A6A196A82
:1028B000186A176A1E6A1D6A1C6A1B6A226A216AE4
:1028C000206A1F6A266A256A246A236A2A6A296A94
:1028D000286A276A2E6A2D6A2C6A2B6A466A456A1C
:1028E000486A476A4A6A496A4C6A4B6A696B6A6B0A
:1028F000010E6B6F6C6B756B766B786B776B7C6BAB
:102900007B6B7A6B796B7E6B7D6BC150C00B0F0953
:10291000C16E070EB46E6E6B6F6BB50ECD6E0B0E87
:10292000CF6EDC0ECE6E9E902BEF05F0806B7F6B32
:10293000030E926E000E936E946E956E080E966E58
:10294000656A806A816A826A836A939E8A9EDFEFE3
:1029500005F0010E906F916F0EEC06F0E40EF66E2E
:10296000090EF76E52EC06F0010E906F030E916F98
:102970000EEC06F0EC0EF66E090EF76E52EC06F059
:10298000010E906F040E916F0EEC06F0020EF66EC3
:102990000A0EF76E52EC06F062EF06F00E0EF66EBF
:1029A0000A0EF76E52EC06F0826B816B82EC06F039
:1029B00002C04CF001C04BF0826B020E816F82ECC2
:1029C00006F002C04AF001C049F0826B040E816F2C
:1029D00082EC06F002C048F001C047F0826B060EA0
:1029E000816F82EC06F002C046F001C045F0826BB8
:1029F000080E816F82EC06F002C04EF001C04DF06F
:102A0000826B0A0E816F82EC06F002C050F001C0AA
:102A10004FF0826B140E816F82EC06F002C052F010
:102A200001C051F0826B160E816F82EC06F002C07D
:102A300054F001C053F0826B180E816F82EC06F0E7
:102A400002C056F001C055F0826B1A0E816F82EC05
:102A500006F002C058F001C057F0826B200E816F63
:102A600082EC06F002C05CF001C05BF0826B220ECB
:102A7000816F82EC06F002C05AF001C059F0826BFF
:102A80000C0E816F82EC06F002C05EF001C05DF0BA
:102A9000826B0E0E816F82EC06F002C060F001C006
:102AA0005FF0826B100E816F82EC06F002C062F064
:102AB00001C061F0826B120E816F82EC06F002C0E1
:102AC00064F001C063F0826B1C0E816F82EC06F033
:102AD00002C068F001C067F0826B1E0E816F82EC4D
:102AE00006F002C066F001C065F09D80C00EF212D3
:102AF000320E906F53EC05F0695303E15CEC08F083
:102B000010D0692D03D024EC0AF00BD069510208D3
:102B100003E13DEC0BF005D06951030802E1A5EC9F
:102B20000CF058EF0DF0806B01C07FF06A533AE172
:102B30007F51030807E1805305E1030E816FE6EC46
:102B40000DF02FD07F51020807E1805305E1020EFE
:102B5000816FE6EC0DF025D07F2D23D0805321E14D
:102B6000010E6A6F100EF66E0A0EF76E52EC06F04A
:102B7000020E906F916F0EEC06F0120EF66E0A0EBA
:102B8000F76E52EC06F0020E816FFA0E906F53EC66
:102B900005F0812FFAD7240EF66E0A0EF76E52EC6E
:102BA00006F008D06A2D06D080C082F07FC081F088
:082BB0004FEF11F09DD7030067
:020000040030CA
:0E00000024CE3E1E0007A1000FC00FE00F40EF
:00000001FF
;PIC18F4550
;CRC=FB60  CREATED="10-ago-19 07:27"
